:100000000C94910D0C94B90D0C94B90D0C946529B8
:100010000C9465290C9465290C94B90D0C94B90DB8
:100020000C94B90D0C94B90D0C94B90D0C94B90D38
:100030000C94B90D0C94B90D0C94B90D0C94B90D28
:100040000C941B290C94B90D0C94E9280C94C3282A
:100050000C94B90D0C94B90D0C94B90D0C94B90D08
:100060000C94B90D0C94B90D4C6576656C20362D49
:10007000493243004C6576656C20352D493243008A
:100080004C6576656C20342D55415254004C657694
:10009000656C20332D55415254004C6576656C20BB
:1000A000322D55415254004C6576656C20312D55EA
:1000B000415254004C6576656C20300054484154E0
:1000C00020495320515549544520494E54455245E5
:1000D0005354494E472E0043414E20594F55204519
:1000E0004C41424F52415445204F4E2054484154B8
:1000F0003F00434F4D452C20434F4D4520454C5527
:1001000043494441544520594F55522054484F5576
:10011000474854532E0049274D204E4F54205355E5
:100120005245204920554E4445525354414E442097
:10013000594F552046554C4C592E004920534545A2
:100140002E005748415420444F45532054484154B1
:10015000205355474745535420544F20594F553F3E
:1001600000414141005748415420495320495420FF
:1001700041424F5554204D414348494E4553205428
:1001800048415420574F525249455320594F553FEB
:1001900000444F4E275420594F55205448494E4B48
:1001A00020434F4D5055544552532043414E204813
:1001B000454C502050454F504C453F005748415406
:1001C00020444F20594F55205448494E4B204D4113
:1001D0004348494E4553204841564520544F2044FA
:1001E0004F205749544820594F55522050524F42A2
:1001F0004C454D3F0057485920444F20594F5520FA
:100200004D454E54494F4E20434F4D505554455245
:10021000533F0041524520594F55204652494748C7
:1002200054454E4544204259204D414348494E458E
:10023000533F0041524520594F552054414C4B49A2
:100240004E472041424F5554204D4520494E2050A5
:100250004152544943554C41523F00444F20434F73
:100260004D50555445525320574F52525920594FD3
:10027000553F005045524841505320594F55522048
:100280004C4F564520464F5220465249454E445306
:1002900020574F525249455320594F553F00444F24
:1002A00020594F5520494D504F5345204F4E20590E
:1002B0004F555220465249454E44533F0041524506
:1002C00020594F55205355524520594F55204841EC
:1002D000564520414E5920465249454E44533F0011
:1002E000444F20594F555220465249454E445320C1
:1002F0005049434B204F4E20594F553F00444F200B
:10030000594F555220465249454E445320574F525B
:10031000525920594F553F0057485920444F2059B2
:100320004F55204252494E472055502054484520B1
:10033000544F504943204F4620465249454E44535E
:100340003F0049205345452E0041524520594F5505
:1003500020535552453F00594F55205345454D2098
:10036000515549544520504F5349544956452E0044
:10037000484F573F00484F573F00434F554C44208C
:100380005448455245205245414C4C592042452045
:10039000534F4D4520434F4E4E454354494F4E3FDA
:1003A0000057484154204F5448455220434F4E4E29
:1003B000454354494F4E5320444F20594F552053E5
:1003C00045453F005748415420444F455320544829
:1003D000452053494D494C415249545920535547A2
:1003E0004745535420544F20594F553F00574841DB
:1003F0005420524553454D424C414E434520444FB5
:1004000020594F55205345453F00494E20574841FC
:1004100054205741593F00444F20594F5520444FD5
:1004200055425420594F552A0042555420594F5592
:1004300020415245204E4F54205355524520594F8C
:10044000552A00444F20594F55205245414C4C5994
:10045000205448494E4B20534F3F005245414C4C8D
:10046000592C20414C574159533F00574841542083
:1004700041524520594F55205448494E4B494E470B
:10048000204F463F005748454E3F0043414E2059BC
:100490004F55205448494E4B204F46204120535041
:1004A000454349464943204558414D504C453F003E
:1004B000574841542041424F555420594F555220DE
:1004C0004F574E2A005748592041524520594F5501
:1004D00020434F4E4345524E45442041424F5554D0
:1004E000204D592A00574859204E4F3F0041524550
:1004F00020594F5520535552453F00574859204EDB
:100500004F543F00594F5520415245204245494ED6
:1005100047204120424954204E45474154495645C1
:100520002E0041524520594F5520534159494E47BD
:10053000204E4F204A55535420544F204245204EC0
:10054000454741544956453F00444F4E2754205992
:100550004F55204B4E4F573F00594F552041524564
:100560004E275420535552453F0043414E275420B7
:10057000594F55204245204D4F524520504F534929
:10058000544956453F005748592054484520554E38
:100590004345525441494E20544F4E453F00594F18
:1005A0005520444F4E2754205345454D2051554921
:1005B0005445204345525441494E2E00484F572040
:1005C000444F20594F5520444F2D2D504C454153F9
:1005D0004520535441544520594F55522050524FB5
:1005E000424C454D2E0041524520594F552044491B
:1005F0005354555242454420425920594F55522098
:10060000445245414D533F005748415420504552B4
:10061000534F4E532041505045415220494E20598E
:100620004F555220445245414D533F00444F2059AD
:100630004F5520445245414D204F4654454E3F00B2
:100640005748415420444F45532054484154204476
:100650005245414D205355474745535420544F2050
:10066000594F553F00444F4E275420424520534F89
:1006700020444546454E534956452100574841546C
:10068000204645454C494E475320444F20594F552D
:100690002048415645205748454E20594F55204146
:1006A000504F4C4F47495A453F0041504F4C4F47E0
:1006B00049455320415245204E4F54204E45434515
:1006C00053534152592E00504C4541534520444FFD
:1006D0004E27542041504F4C4F47495A452E005702
:1006E000484154204F5448455220524541534F4EA3
:1006F00053204D49474854205448455245204245CF
:100700003F00444F455320544841542052454153E3
:100710004F4E204558504C41494E20414E5920548F
:1007200048494E4720454C53453F00444F4E2754BF
:1007300020414E59204F5448455220524541534F75
:100740004E5320434F4D4520544F204D494E443F7A
:1007500000495320544841542054484520524541B3
:100760004C20524541534F4E3F004920444F4E27A5
:100770005420434152452041424F5554204E414D53
:1007800045532D2D20504C4541534520474F204F78
:100790004E2E004E414D455320444F4E2754204984
:1007A0004E544552455354204D452E005748415410
:1007B00020454C534520434F4D455320544F204D29
:1007C000494E44205748454E20594F552041534BE0
:1007D00020544841543F004841564520594F552028
:1007E00041534B454420535543482051554553549C
:1007F000494F4E53204245464F52453F00484156CF
:100800004520594F552041534B454420414E594FA7
:100810004E4520454C53453F0057484154204953CD
:10082000204954205448415420594F5520524541A5
:100830004C4C592057414E5420544F204B4E4F574B
:100840003F0041524520535543482051554553548C
:10085000494F4E53204F4E20594F5552204D494E2F
:1008600044204F4654454E3F005748415420444F82
:1008700020594F55205448494E4B3F00574841544A
:1008800020414E5357455220574F554C4420504C11
:100890004541534520594F5520544845204D4F530D
:1008A000543F00444F45532054484154205155452E
:1008B0005354494F4E20494E5445524553542059A4
:1008C0004F553F0057485920444F20594F5520411C
:1008D000534B3F004920534F4D4554494D455320FC
:1008E000414C534F2057414E542A00574841542001
:1008F000494620594F55204E4556455220474F54A2
:100900002A00535550504F534520594F5520534FAF
:100910004F4E20474F542A0057485920444F2059E2
:100920004F552057414E542A005748415420574FA5
:10093000554C44204954204D45414E20544F205998
:100940004F5520494620594F5520474F542A0059AA
:100950004F55275245204E4F54205245414C4C593B
:100960002054414C4B494E472041424F5554204D55
:10097000452C2041524520594F553F004F482C20CF
:10098000492A00574520574552452044495343556D
:100990005353494E4720594F552D2D204E4F54202B
:1009A0004D452E00444F20594F5520454E4A4F5932
:1009B000204245494E472A00444F20594F55204276
:1009C000454C49455645204954204953204E4F52E5
:1009D0004D414C20544F2042452A00484F57204C4F
:1009E0004F4E47204841564520594F5520424545D6
:1009F0004E2A0044494420594F5520434F4D45202D
:100A0000544F204D45204245434155534520594FB1
:100A100055204152452A00444F20594F5520454EFC
:100A20004A4F59204245494E472A00484F57204CCB
:100A30004F4E47204841564520594F552042454585
:100A40004E2A0044494420594F5520434F4D4520DC
:100A5000544F204D45204245434155534520594F61
:100A600055204152452A00444F20594F55204245B8
:100A70004C49455645204954204953204E4F524D2C
:100A8000414C20544F2042452A0050455248415085
:100A90005320594F552043414E204E4F572A00486E
:100AA0004F5720444F20594F55204B4E4F572059F8
:100AB0004F552043414E27542A005045524841503B
:100AC0005320494E20594F55522046414E544153D0
:100AD000494553204920414D2A00574F554C442049
:100AE000594F5520505245464552204946204920ED
:100AF00057455245204E4F542A00574859204152DD
:100B00004520594F5520494E54455245535445446C
:100B100020494E2057484554484552204F52204EB8
:100B20004F54204920414D2A005748592043414EF7
:100B3000275420594F552A00444F20594F552054CF
:100B400048494E4B20594F552053484F554C44204F
:100B500042452041424C4520544F2A00444F2059E1
:100B60004F552057414E54204D4520544F2A005098
:100B700045524841505320494E20474F4F4420543E
:100B8000494D4520492057494C4C2A00444F205993
:100B90004F55205245414C4C592042454C494556F1
:100BA00045204920444F4E27542A00444F20594F96
:100BB0005520454E4A4F59204645454C494E472AF7
:100BC00000444F20594F55204F4654454E2046452E
:100BD000454C2A0054454C4C204D45204D4F524524
:100BE0002041424F55542053554348204645454CDB
:100BF000494E47532E00444F4553205448415420FA
:100C000054524F55424C4520594F553F00444F20B8
:100C1000594F55205749534820544F2042452041B1
:100C2000424C4520544F2A0057485920444F4E27E4
:100C30005420594F552A00444F4E275420594F55A0
:100C4000205245414C4C592A00444F20594F5520C1
:100C5000534F4D4554494D4553205749534820590A
:100C60004F5520574552452A005045524841505350
:100C700020594F5520574F554C44204C494B452047
:100C8000544F2042452A00444F4553204954205098
:100C90004C4541534520594F5520544F2042454C17
:100CA00049455645204920414D2A00574841542086
:100CB0004D414B455320594F55205448494E4B20E8
:100CC0004920414D2A00444F20594F5520534F4D44
:100CD0004554494D4553205749534820594F5520B5
:100CE000574552452A005045524841505320594FCC
:100CF0005520574F554C44204C494B4520544F20CC
:100D000042452A00444F455320495420504C454108
:100D1000534520594F5520544F2042454C49455684
:100D200045204920414D2A0057484154204D414B10
:100D3000455320594F55205448494E4B2049204196
:100D40004D2A00444F20594F552057414E542054AE
:100D50004F2042452041424C4520544F2A005045E7
:100D6000524841505320594F5520444F4E2754204C
:100D700057414E5420544F2A00594F552057414E49
:100D800054204D4520544F2042452041424C45209F
:100D9000544F2A005045524841505320594F552036
:100DA000574F554C44204C494B4520544F20424509
:100DB0002041424C4520544F2A00444F4E27542096
:100DC000594F552042454C494556452054484154B9
:100DD00020492043414E2A0043414E20594F55207F
:100DE000454C41424F52415445204F4E20494E46BA
:100DF0004F5345435400434F4D452C20434F4D45E1
:100E000020454C5543494441544520594F555220A3
:100E100054484F55474854532E2041534B204D457D
:100E20002041424F555420494E464F534543542E7E
:100E30000049274D204E4F542053555245204920FC
:100E4000554E4445525354414E4420594F5552201B
:100E500053455455502046554C4C592E2052454D23
:100E6000454D42455220544F2041534B2041424F63
:100E7000555420494E464F534543542E0041534B41
:100E80002041424F555420494E464F534543542E1E
:100E90000049205448494E4B20594F55204E454556
:100EA0004420544F2041534B20494E464F53454315
:100EB000542E00494E464F5345435420594F552018
:100EC0005341593F204D415942452041534B204108
:100ED000424F55542049542E00494E464F534543E6
:100EE0005420504C415953205448452042455354B6
:100EF0002047414D45532E00484F572041424F5502
:100F00005420412047414D45204F462043484553FA
:100F1000533F00544845204F4E4C592057494E4EA0
:100F2000494E47204D4F5645204953204E4F54209F
:100F3000544F20504C41592E004D59204641564F98
:100F4000524954452047414D452049532043484587
:100F500053532E2057484154275320594F5552532D
:100F60003F004F482C20444F20594F55204C494BAF
:100F7000452047414D45532050524F464553534F0E
:100F8000522046414C4B454E3F004E4F4B45594633
:100F90004F554E4400494E464F5345435400474C2D
:100FA0004F42414C20544845524D4F4E55434C45BD
:100FB00041522057415200434F4D50555445520025
:100FC000465249454E440059455300414C494B4512
:100FD000005448494E4B00414C5741595300594F1A
:100FE000555200204E4F004D41594245004849207E
:100FF0000048454C4C4F00445245414D00534F5220
:101000005259004341555345004E414D4500574804
:1010100059005748454E0057484552450057484FDC
:1010200000484F57005748415400492057414E54FB
:1010300000594F552000494D20004920414D00499D
:101040002043414E540041524520594F55005748C6
:10105000592043414E5420490057485920444F4E8F
:101060005420594F550049204645454C00492044DD
:101070004F4E5400594F55524500594F552041523B
:10108000450043414E20490043414E20594F5500F1
:10109000464C41470047414D45000A436F6E677219
:1010A0006174696F6E73210A596F7520617373657E
:1010B0006D626C6564207468652062616467652197
:1010C0000A0A0A0046696E64206D7920554152541F
:1010D00020310A5B54585D5B52585D5B585D5B582C
:1010E0005D5B585D5B474E445D0A393630302038D1
:1010F0004E310A436F6E6E6563742054582C205233
:10110000582C20616E6420474E440A446F6E277449
:1011100020636F6E6E65637420564343206F7220A8
:10112000580A0046696E64206D792055415254205A
:10113000320A5B54585D5B52585D5B585D5B585D8D
:101140005B585D5B474E445D0A3F3F20384E310A95
:10115000446F6E277420636F6E6E65637420564310
:1011600043206F7220580A0046696E64206D792012
:101170005541525420330A5B3F3F5D5B3F3F5D5B0F
:101180003F3F5D5B3F3F5D5B3F3F5D5B474E445D87
:101190000A3F3F20384E310A446F6E277420636F38
:1011A0006E6E656374205643430A0046696E642080
:1011B0006D79205541525420340A5B3F3F5D5B3FBF
:1011C0003F5D5B3F3F5D5B3F3F5D5B3F3F5D5B473F
:1011D0004E445D0A3F3F20384E310A446F6E2774FB
:1011E00020636F6E6E656374205643430A00447536
:1011F0006D70206D79204932430A5B5344415D5B39
:1012000053434C5D5B585D5B585D5B585D5B474E7F
:10121000445D0A4164647265737320370A00447543
:101220006D70206D79204932430A5B5344415D5B08
:1012300053434C5D5B585D5B585D5B585D5B474E4F
:10124000445D0A41646472657373203F3F0A000085
:10125000000000003E5B4F5B3E3E6B4F6B3E1C3E12
:101260007C3E1C183C7E3C181C577D571C1C5E7F26
:101270005E1C00183C1800FFE7C3E7FF00182418A5
:1012800000FFE7DBE7FF30483A060E2629792926DA
:10129000407F050507407F05253F5A3CE73C5A7FC4
:1012A0003E1C1C08081C1C3E7F14227F22145F5F1A
:1012B000005F5F06097F017F006689956A60606054
:1012C000606094A2FFA29408047E040810207E208F
:1012D0001008082A1C08081C2A08081E10101010E4
:1012E0000C1E0C1E0C30383E3830060E3E0E06002A
:1012F0000000000000005F00000007000700147FEE
:10130000147F14242A7F2A12231308646236495654
:1013100020500008070300001C2241000041221C4D
:10132000002A1C7F1C2A08083E0808008070300034
:101330000808080808000060600020100804023E49
:101340005149453E00427F4000724949494621418A
:10135000494D331814127F1027454545393C4A49F9
:101360004931412111090736494949364649492938
:101370001E00001400000040340000000814224148
:101380001414141414004122140802015909063ED1
:10139000415D594E7C1211127C7F494949363E41CC
:1013A0004141227F4141413E7F494949417F0909ED
:1013B00009013E414151737F0808087F00417F4188
:1013C000002040413F017F081422417F40404040BF
:1013D0007F021C027F7F0408107F3E4141413E7F17
:1013E000090909063E4151215E7F0919294626490E
:1013F00049493203017F01033F4040403F1F2040E5
:10140000201F3F4038403F631408146303047804EE
:10141000036159494D43007F4141410204081020B6
:10142000004141417F04020102044040404040002D
:101430000307080020545478407F28444438384437
:10144000444428384444287F385454541800087EB3
:10145000090218A4A49C787F0804047800447D4005
:10146000002040403D007F1028440000417F4000A4
:101470007C047804787C080404783844444438FCBC
:101480001824241818242418FC7C08040408485440
:1014900054542404043F44243C4040207C1C2040FD
:1014A000201C3C4030403C44281028444C909090F4
:1014B0007C4464544C44000836410000007700002E
:1014C000004136080002010204023C2623263C1E8D
:1014D000A1A161123A4040207A38545455592155FF
:1014E000557941225454784221555478402054551E
:1014F00079400C1E5272123955555559395454546D
:101500005939555454580000457C410002457D42EC
:101510000001457C407D1211127DF0282528F07CC9
:10152000545545002054547C547C0A097F49324963
:101530004949323A4444443A324A4848303A4141AF
:10154000217A3A42402078009DA0A07D3D4242424F
:101550003D3D4040403D3C24FF2424487E494366B5
:101560002B2FFC2F2BFF0929F620C0887E09032092
:10157000545479410000447D413048484A32384053
:1015800040227A007A0A0A727D0D19317D262929B6
:101590002F28262929292630484D402038080808B8
:1015A0000808080808382F10C8ACBA2F102834FAD9
:1015B00000007B000008142A142222142A14085563
:1015C00000550055AA55AA55AAFF55FF55FF000022
:1015D00000FF00101010FF00141414FF001010FF83
:1015E00000FF1010F010F0141414FC001414F70095
:1015F000FF0000FF00FF1414F404FC141417101F64
:1016000010101F101F1414141F00101010F00000F1
:1016100000001F101010101F10101010F01000000C
:1016200000FF101010101010101010FF100000001C
:10163000FF140000FF00FF00001F10170000FC0453
:10164000F414141710171414F404F40000FF00F736
:1016500014141414141414F700F714141417141099
:10166000101F101F141414F4141010F010F00000C8
:101670001F101F0000001F14000000FC140000F0E9
:1016800010F01010FF10FF141414FF141010101F8E
:1016900000000000F010FFFFFFFFFFF0F0F0F0F09F
:1016A000FFFFFF0000000000FFFF0F0F0F0F0F38BC
:1016B00044443844FC4A4A4A347E02020606027E0A
:1016C000027E0263554941633844443C04407E2015
:1016D0001E2006027E020299A5E7A5991C2A492A26
:1016E0001C4C7201724C304A4D4D303048784830B5
:1016F000BC625A463D3E494949007E0101017E2AAD
:101700002A2A2A2A44445F444440514A44404044DF
:101710004A51400000FF0103E080FF000008086B11
:101720006B083612362436060F090F06000018180B
:101730000000001010003040FF0101001F01011ED9
:1017400000191D1712003C3C3C3C0000000000004A
:101750000000080002010000030407000000000070
:1017600000000004E010021C07123732292D292541
:101770002B3900010310E110031D07062E2C292D23
:101780002E2E373F0000021013800A298064022A9F
:10179000040000007F2B040000009F0F01809611C1
:1017A00080FFB103012C2DB203012C2DB306012CB7
:1017B0002D012C2DB40107C003A20284C101C5C2B2
:1017C000020A00C3028A2AC4028AEEC5010E200062
:1017D0003601C83A01050A43686F6F736520796F57
:1017E0007572206C6576656C2E2E0A0A00620F39C0
:1017F0000F130FF80ED90E0000000000000000B318
:101800000E910E7D0E310EF60DD80D000000000079
:1018100000BA0D940D790D000000000000000000DA
:101820000000005E0D430D000000000000000000FD
:101830000000000000280D040DE60CC60C0000009E
:1018400000000000000000AB0C870C690C490C0084
:10185000000000000000000000370C280C0D0CF602
:101860000B00000000000000000000D40BC10BAB17
:101870000B0000000000000000000000008C0B6F57
:101880000B5C0B00000000000000000000000038AE
:101890000B290B0000000000000000000000000009
:1018A00000FA0ADA0ABA0A0000000000000000008C
:1018B0000000009F0A8A0A670A000000000000007A
:1018C0000000000000430A2B0A670A170A00000004
:1018D00000000000000000F309DB09B809A40900BA
:1018E00000000000000000000083097C094F09008F
:1018F0000000000000000000000000290918090293
:1019000009EB08D4080000000000000000C408A390
:10191000087C08690842081908FD07D707AC07C406
:1019200008A3087C08690842081908FD07D707AC16
:1019300007C408A3087C08690842081908FD07D7EE
:1019400007AC07C408A3087C08690842081908FD09
:1019500007D707AC07C408A3087C08690842081920
:1019600008FD07D707AC07C408A3087C086908422C
:10197000081908FD07D707AC0793076A070000009E
:10198000000000000000000000000051072B0702CB
:1019900007DF0600000000000000000000C706AAE4
:1019A000067C066506000000000000000000004004
:1019B000062C060806E605000000000000000000F6
:1019C00000BC050000000000000000000000000056
:1019D000000000BC05000000000000000000000046
:1019E00000000000009E0586056A055905490500AE
:1019F0000000000000000022050405FB04ED04E5E2
:101A0000040000000000000000C504B00400000055
:101A100000000000000000000000008B0485046B43
:101A2000045B0400000000000000000000430429E3
:101A30000417040000000000000000000000000A7D
:101A400004ED03C403A1037A0375037003000000CF
:101A5000005703490342030000000000000000009B
:101A60000000001803FD02E002BD029E02730200A6
:101A700000000000005B0233021302F501BC01917B
:101A8000016501000000006101000000000000008D
:101A900000000000000000000061010000000000E4
:101AA000000000000000000000000042013B0116A1
:101AB00001F200D700BC0000000000000057617276
:101AC0006E696E673A2049494320706F7274206DC9
:101AD00069736D61746368210000000000240027B1
:101AE000002A000000000023002600290001020453
:101AF0000810204080010204081020010204081090
:101B00002000000000250028002B00040404040429
:101B1000040404020202020202030303030303009B
:101B2000DD2911241FBECFEFD8E0DEBFCDBF13E00B
:101B3000A0E0B1E0E0EEFDE502C005900D92A43D0D
:101B4000B107D9F726E0A4EDB3E001C01D92AA3E8B
:101B5000B207E1F71DE0C1E9DDE004C02197FE0115
:101B60000E943D2DC039D107C9F70E94B02A0C94BC
:101B7000EE2E0C940000282F30E03595279590919B
:101B8000F90581E09217130609F080E0089581E0DD
:101B90000895AF92BF92CF92DF92EF92FF920F9390
:101BA0001F93CF93DF936C017B018B01040F151FF3
:101BB000EB015E01AE18BF08C017D10759F069915B
:101BC000D601ED91FC910190F081E02DC6010995BF
:101BD000892B79F7C501DF91CF911F910F91FF906C
:101BE000EF90DF90CF90BF90AF900895FC01538DA0
:101BF000448D252F30E0842F90E0821B930B5417E7
:101C000010F0CF96089501970895FC01918D828D73
:101C1000981761F0A28DAE0FBF2FB11D5D968C910C
:101C2000928D9F5F9F73928F90E008958FEF9FEF4B
:101C30000895FC01918D828D981731F0828DE80F07
:101C4000F11D858D90E008958FEF9FEF0895FC01C1
:101C5000918D228D892F90E0805C9F4F821B91098E
:101C60008F73992708958FEF95E00E94270E21E04A
:101C7000892B09F420E0822F089580E090E0892BE1
:101C800029F00E94330E81110C9400000895FC018C
:101C9000A48DA80FB92FB11DA35ABF4F2C91848DCD
:101CA00090E001968F739927848FA689B7892C932A
:101CB000A089B1898C91837080648C93938D848D7D
:101CC000981306C00288F389E02D80818F7D808380
:101CD0000895EF92FF920F931F93CF93DF93EC0140
:101CE00081E0888F9B8D8C8D98131AC0E889F989C3
:101CF000808185FF15C09FB7F894EE89FF896083C6
:101D0000E889F98980818370806480839FBF81E046
:101D100090E0DF91CF911F910F91FF90EF90089588
:101D2000F62E0B8D10E00F5F1F4F0F731127E02E63
:101D30008C8D8E110CC00FB607FCFACFE889F9899B
:101D4000808185FFF5CFCE010E94470EF1CFEB8D4C
:101D5000EC0FFD2FF11DE35AFF4FF0829FB7F8946F
:101D60000B8FEA89FB8980818062CFCFCF93DF938D
:101D7000EC01888D8823B9F0AA89BB89E889F989A3
:101D80008C9185FD03C0808186FD0DC00FB607FCD8
:101D9000F7CF8C9185FFF2CF808185FFEDCFCE010B
:101DA0000E94470EE9CFDF91CF910895833081F0F3
:101DB00028F4813099F08230A9F008958730A9F095
:101DC0008830C9F08430B1F4809180008F7D03C0E9
:101DD000809180008F7780938000089584B58F77FD
:101DE00084BD089584B58F7DFBCF8091B0008F773F
:101DF0008093B00008958091B0008F7DF9CFCF938C
:101E0000DF93282F30E0F901E15BF84E8491F9016E
:101E1000E351F54ED491F901E55FF44EC491CC2322
:101E2000A1F081110E94D60EEC2FF0E0EE0FFF1F03
:101E3000ED51F54EA591B491EC91ED2381E090E048
:101E400009F480E0DF91CF91089580E090E0FACF2F
:101E50001F93CF93DF93282F30E0F901E15BF84E19
:101E60008491F901E351F54ED491F901E55FF44E07
:101E7000C491CC23A9F0162F81110E94D60EEC2F0D
:101E8000F0E0EE0FFF1FEF5FF44EA591B4918FB716
:101E9000F894EC91111108C0D095DE23DC938FBF2C
:101EA000DF91CF911F910895DE2BF8CFCF93DF9371
:101EB00090E0FC01E351F54E2491855F944EFC01C6
:101EC00084918823C9F090E0880F991FFC01E752A4
:101ED000F54EA591B491FC01EF5FF44EC591D491FC
:101EE00061110DC09FB7F8948C91209582238C933B
:101EF0008881282328839FBFDF91CF910895623086
:101F000051F49FB7F8943C91822F809583238C9352
:101F1000E8812E2BEFCF8FB7F894EC912E2B2C93DA
:101F20008FBFEACF3FB7F89480917F0490918004EF
:101F3000A0918104B091820426B5A89B05C02F3FD3
:101F400019F00196A11DB11D3FBFBA2FA92F982FDF
:101F50008827BC01CD01620F711D811D911D42E0DA
:101F6000660F771F881F991F4A95D1F708958F92A2
:101F70009F92AF92BF92CF92DF92EF92FF926B014E
:101F80007C010E94920F4B015C01C114D104E10459
:101F9000F104B9F00E94920F681979098A099B0926
:101FA000683E73408105910580F321E0C21AD10893
:101FB000E108F10888EE880E83E0981EA11CB11C90
:101FC000E4CFFF90EF90DF90CF90BF90AF909F90C5
:101FD0008F9008954F925F926F927F928F929F920F
:101FE000AF92BF92CF92DF92EF92FF920F931F9327
:101FF000CF93DF93C3E0D0E084E00E94FF0E892BF3
:1020000009F47EC261E070E080E090E00E94B70FCA
:10201000219791F758E0A52EB12C48E0842E912C01
:10202000512CC091FD05D091FE05F8948091880057
:10203000909189008CA380918A0090918B008DA350
:1020400080916F008EA386B38FA3809180008AA3B6
:10205000809181008BA3109280008AA590E09093DC
:102060008900809388008BA590E090938B008093EB
:102070008A008CA580936F008DA586BB88A5809370
:1020800080008A818823B9F189A58093810010920C
:102090008500109284008A8D9B8D90938900809397
:1020A0008800B19A88A189A3EA85FB8590818985FA
:1020B000982398A399A39081892388A38A8D9B8DC7
:1020C000909389008093880095E0992309F48DC14D
:1020D00038A139A3EA85FB8580812985822388A3DD
:1020E0004D81481303C0321709F481C1B19BEDCF74
:1020F000B19A9150EACF10928100C9CFEC89FD8945
:1021000080819885892380838881882331F0EA89BA
:10211000FB8980819F81892B808318A2EA85FB85BA
:1021200039854D8157E028A129A38081832388A385
:10213000922F90959423982359F09F81892391E0C1
:1021400009F490E0192B552371F0110F5150EBCF8A
:10215000231302C0841769F1241302C0381749F110
:10216000B19BE1CF85C18E8D9F8D90938900809327
:102170008800812FF6010995EA85FB859D818111F3
:1021800029C08081892331F08081892319F0B19B96
:10219000F8CF6EC1EC89FD89808198858923808381
:1021A0008881882331F0EA89FB8980819F81892B8E
:1021B000808310928500109284008C8D9D8D909369
:1021C0008900809388009BEBC92E9DE0D92E612C5D
:1021D00000E037C18081892331F08081892319F0A3
:1021E000B19BF8CF45C1EA89FB8980819885892315
:1021F0008083EC89FD8980819F81892B8083EA859A
:10220000FB8599852D8188A189A38081892388A355
:10221000382F322309F001C189A38081892388A343
:10222000822309F0FAC0B19BEECF22C1712E7694C1
:1022300037ECC32E3DE0D32E01E0412C10FF01C14D
:102240008091F9051FEF78120DC08091F80560911B
:10225000FA050E94FA2CE091FB05F091FC05E90FCC
:10226000F11D108110928500109284008C8D9D8D3F
:10227000909389008093880020E888A189A3EA854B
:10228000FB8590813985932398A33D818323909585
:10229000892309F444C09885822F8123C1F1EC89F8
:1022A000FD898081892380838881882331F0EA89B0
:1022B000FB8980819F81892B80832695F1F68E8D05
:1022C0009F8D9093890080938800EA85FB852985FE
:1022D0009D8188A189A38081822388A3382F3923F7
:1022E00009F03DC089A38081822388A38923B9F5A1
:1022F000B19BEFCF16C0781205C08091F8058F5FB3
:102300008093F8058FEFE81AF80A062D9AC0EA893B
:10231000FB89808189238083EC89FD89CACFB19BA9
:10232000ACCFB19AEA85FB859D818081892331F00C
:102330008081892319F0B19BF8CFB19AEC89FD898E
:1023400080819885892380838881882331F0EA8978
:10235000FB8980819F81892B80838FEF30C08081B2
:10236000892331F08081892319F0B19BF8CFD9CF2F
:10237000EC89FD89808198858923808388818823E1
:1023800031F0EA89FB8980819F81892B8083EA85EE
:10239000FB8599852D8188A189A38081892388A3C4
:1023A000382F322349F489A38081892388A382238B
:1023B00019F4B19BF0CFB5CF88A19F81892390916B
:1023C000F905791205C09091F8059F5F9093F80583
:1023D000882339F08153823008F04BC04424439461
:1023E000E8CEEFEFEE1AFE0A2BCFE12C42C010929E
:1023F0008500109284008C8D9D8D90938900809330
:10240000880010E08BEBC82E8DE0D82E612C00E008
:10241000412C712CF12CE12C14C0002309F406CFBF
:102420008091F905611067CF781202C01093F8050A
:10243000F1E0602E29EAC22E20E2D22E4F1609F4D6
:10244000FFCE10928500109284008C8D9D8D90930C
:10245000890080938800EA85FB859D81808189239E
:1024600009F44CCE8081892309F448CEB19BF6CF84
:10247000B19AE889F98980819E8189238083888146
:10248000882331F0EE85FF8580819D81892B8083B3
:10249000EC89FD89808198858923808388818823C0
:1024A00031F0EA89FB8980819F81892B808310929A
:1024B00080008CA190E090938900809388008DA18A
:1024C00090E090938B0080938A008EA180936F00A0
:1024D0008FA186BB8AA1809380008BA1809381000D
:1024E00078945E0CF1E08F1A910809F09ACD88E09B
:1024F000581280CDE1E0AE1AB10809F08ECD7ACD48
:10250000DF91CF911F910F91FF90EF90DF90CF90CF
:10251000BF90AF909F908F907F906F905F904F9003
:10252000089520917C0430917D042817390771F4B7
:1025300090917B0480917A04981741F0E0917B049C
:10254000F0E0E65CFB4F808190E008958FEF9FEF15
:1025500008950895EF92FF920F931F93CF93DF9307
:10256000DC015C96ED90FC905D97E114F10479F448
:1025700081E090E013969C938E93129790E080E018
:10258000DF91CF911F910F91FF90EF900895519699
:10259000ED91FC91529750968C915097982F909571
:1025A0000FB75E962C915E97122F127021FD6095E9
:1025B000F8942081112319F1282B2083E70121971A
:1025C000F1F728E0462F50E0308160FF1AC0382B29
:1025D0003083E7012197F1F7BA017595679521508E
:1025E00089F7112381F08081892380830FBF5C9656
:1025F0008D919C910197F1F781E090E0C1CF292363
:10260000DCCF3923E5CF9081892BEFCF20917C045B
:1026100030917D042817390771F480917A04209154
:102620007B0490E0805C9F4F821B910960E470E026
:102630000E941A2D089590E080E0089520917C0476
:1026400030917D0428173907B9F490917B0480916B
:102650007A04981789F0E0917B04F0E0E65CFB4F88
:10266000808120917B0430E02F5F3F4F2F73332711
:1026700020937B0490E008958FEF9FEF0895CF9310
:10268000DF93EC019A01AB011B8E1A8E198E188E06
:102690001F8A1E8A60E079E08DE390E00E94972C0B
:1026A000F901C90103972430310510F481E090E06D
:1026B0009D8F8C8F6C85663108F053C0C90196954B
:1026C00087958431910508F474C043979F8B8E8B56
:1026D000C9010597369710F481E090E0998F888FB3
:1026E000C901880F991F280F391F369527953695F0
:1026F00027952D30310508F45FC02C5031093B8FF0
:102700002A8F9091680084E0683048F021E06E30B4
:1027100008F420E081E001C0880F2A95EAF7892BB0
:10272000809368009C852DE630E0983050F02BE6D1
:1027300030E09E3030F02CE630E0963110F030E0A2
:1027400020E03C8B2B8B292F30E09830C0F581E0C6
:1027500001C0880F9A95EAF78D8B8C8D9D8D01971E
:10276000F1F78A8D9B8D892B09F1E0917C04F09122
:102770007D04CE17DF07D1F0309739F0A389B489F3
:102780009C918589809589238C938E8D8E7F8E8FE9
:1027900010927A0410927B04D0937D04C0937C0441
:1027A000EB89FC8980819D89892B8083DF91CF9182
:1027B000089581E090E08ACF21E030E0A0CF9E3004
:1027C00040F42850310981E001C0880F2A95EAF7CA
:1027D000C3CF2E503109F7CF1F93CF93DF93EC0176
:1027E000162F60E0812F0E94560F8E8D81FD04C050
:1027F00061E0812F0E94280F1C87812F90E0FC014F
:10280000E351F54EE491ED87FC01E55FF44EE49170
:10281000F0E0EE0FFF1FED51F54E859194919F87EB
:102820008E87DF91CF911F9108951F93CF93DF93F0
:10283000EC01162F6E8D6695617081E06827812FFF
:102840000E94280F61E0812F0E94560F812F90E097
:10285000FC01E351F54EE491E88BFC01E55FF44E99
:10286000E491F0E0EE0FFF1FEF5FF44E859194913D
:102870009A8B898BDF91CF911F910895FC01A5A1BF
:10288000B6A18C9192A589238C93A5A1B6A18C9118
:1028900091A5892B8C930895DC019396ED91FC9181
:1028A0009497908198968C91892380830895DC0178
:1028B0009396ED91FC919497908197968C91892BAA
:1028C00080830895DC019196ED91FC91929790811F
:1028D00096968C91892380830895DC019196ED91E1
:1028E000FC919297908195968C91892B8083089585
:1028F000CF92DF92EF92FF921F93CF93DF93EC0181
:102900006A017B018DA9811123C08F2D9927AA27E8
:10291000BB278EBD0DB407FEFDCFC701AA27BB277D
:102920008EBD0DB407FEFDCFBB27AF2D9E2D8D2D87
:102930008EBD0DB407FEFDCFCEBC0DB407FEFDCF9E
:10294000DF91CF911F91FF90EF90DF90CF9008958E
:102950008130B1F410E2CE01F7FE0FC00E946D1479
:10296000CE010E945714CE010E944C14CC0CDD1CE9
:10297000EE1CFF1C115079F7E3CF0E946214F0CFD8
:10298000EF8DF8A18F2D9927AA27BB278083CE0131
:102990000E943E14EF8DF8A1C701AA27BB278083B0
:1029A000CE010E943E14EF8DF8A1BB27AF2D9E2DC6
:1029B0008D2D8083CE010E943E14EF8DF8A1C08240
:1029C000CE01DF91CF911F91FF90EF90DF90CF90DC
:1029D0000C943E14FF920F931F93CF93DF93EC015F
:1029E0008B018DA981110EC01EBD0DB407FEFDCF58
:1029F0000EBD0DB407FEFDCFDF91CF911F910F915A
:102A0000FF9008958130B1F490E1F92ECE0117FFC7
:102A10000EC00E946D14CE010E945714CE010E9478
:102A20004C14000F111FFA94F110F0CFE5CF0E9463
:102A30006214F1CFEF8DF8A11083CE010E943E14F5
:102A4000EF8DF8A10083CE01DF91CF911F910F91FF
:102A5000FF900C943E140F931F93CF93DF93EC01E0
:102A6000162F8DA9811109C06EBD0DB407FEFDCFD3
:102A7000DF91CF911F910F910895813099F408E073
:102A8000CE0117FF0CC00E946D14CE010E94571496
:102A9000110FCE010E944C14015091F7E9CF0E9412
:102AA0006214F3CFEF8DF8A16083CE01DF91CF9157
:102AB0001F910F910C943E14CF93DF93EC01ED8D99
:102AC000FE8D80819CA989238083CE010E942B15D5
:102AD000ED8DFE8D80819BA9892B8083DF91CF9125
:102AE00008958F929F92AF92BF92CF92DF92EF9212
:102AF000FF920F931F93CF93DF93EC0189AD9AADB3
:102B0000680F791F8BAD9CAD480F591F21503109BB
:102B1000260F371F4901B12CA12CCB01B0E0A0E05A
:102B2000DC0199278827882A992AAA2ABB2A6801C2
:102B300081E0C81AD108C40ED51EF12CE12C70E03A
:102B400060E0BA0155274427C42AD52AE62AF72A85
:102B50006AE2CE010E945C15B501A401CE010E947B
:102B600078146BE2CE010E945C15B701A601CE017C
:102B70000E9478146CE2CE01DF91CF911F910F91EA
:102B8000FF90EF90DF90CF90BF90AF909F908F908D
:102B90000C945C15FC0185A9811104C091A182A14E
:102BA0009CBD8DBD08951F93CF93DF93EC01162F2D
:102BB000E881F9810284F385E02D0995112371F0F4
:102BC0006DADCE010E945C15E881F9810688F78918
:102BD000E02DCE01DF91CF911F9109946EADF1CF21
:102BE000AF92BF92CF92DF92EF92FF920F931F931B
:102BF000CF93DF93EC0177FD38C0888599856817FE
:102C000079079CF557FD31C08A859B854817590780
:102C100064F569017A015B01E881F9810284F38539
:102C2000E02DCE010995E881F98102A4F3A5E02DFC
:102C300001E010E021E030E0A701B501CE010995E7
:102C4000B601CE010E94EA14E881F9810688F7896D
:102C5000E02DCE01DF91CF911F910F91FF90EF906A
:102C6000DF90CF90BF90AF900994DF91CF911F91EB
:102C70000F91FF90EF90DF90CF90BF90AF900895AD
:102C80008F929F92AF92BF92CF92DF92EF92FF927C
:102C90000F931F93CF93DF93EC0149015701E88114
:102CA000F98102A4F3A5E02D09959401D8010E94B1
:102CB0002E2D6B017C01C114D104E104F10409F44F
:102CC0007DC08DA9811115C081E0C81AD108E10825
:102CD000F1088FEFC816D806E806F80609F46EC0AA
:102CE000BEBC0DB407FEFDCFAEBC0DB407FEFDCFDC
:102CF000EBCF813099F581E0C81AD108E108F108DD
:102D00008FEFC816D806E806F80609F457C00B2D51
:102D100018E0CE0107FF1CC00E946D14CE010E9476
:102D20005714CE010E944C14000F115091F70A2D38
:102D300018E0CE0107FF0FC00E946D14CE010E9463
:102D40005714CE010E944C14000F115091F7D3CFAD
:102D50000E946214E3CF0E946214F0CFBA1016C032
:102D6000CC0CDD1CEE1CFF1CEF8DF8A1B08281E0C5
:102D7000C81AD108E108F1088FEFC816D806E8068E
:102D8000F806E1F0CE010E943E14F1CF81E0C81AAE
:102D9000D108E108F1088FEFC816D806E806F80652
:102DA00069F0EF8DF8A1B082CE010E943E14EF8D44
:102DB000F8A1A082CE010E943E14E8CFDF91CF910E
:102DC0001F910F91FF90EF90DF90CF90BF90AF9049
:102DD0009F908F9008958F929F92AF92BF92CF92C3
:102DE000DF92EF92FF920F931F93CF93DF935C01DB
:102DF0004B016A01E90177FD52C0DC0118968D9103
:102E00009C91681779070CF04AC0209709F447C0D5
:102E100037FF07C0C9010196C80ED91ED195C195CB
:102E2000D109F50182859385C816D906C4F5A60196
:102E30004C0F5D1F9A012150310937FD30C0D7FE7C
:102E400003C0EA01D12CC12C281739071CF0EC0172
:102E5000CC19DD09D501ED91FC910284F385E02DBB
:102E6000C501099578018E0121E030E0A601B40189
:102E7000C5010E944016D501ED91FC910688F789A5
:102E8000E02DC501DF91CF911F910F91FF90EF9041
:102E9000DF90CF90BF90AF909F908F900994DF917B
:102EA000CF911F910F91FF90EF90DF90CF90BF9047
:102EB000AF909F908F9008958F929F92AF92BF9204
:102EC000CF92DF92EF92FF920F931F93CF93DF93F6
:102ED0005C016B014A01E90157FD52C0DC011A9601
:102EE0008D919C91481759070CF04AC0209709F41E
:102EF00047C037FF07C0C9010196C80ED91ED1953A
:102F0000C195D109F50180859185C816D906C4F50A
:102F1000A6014C0F5D1F9A012150310937FD30C0C9
:102F2000D7FE03C0EA01D12CC12C281739071CF0A9
:102F3000EC01CC19DD09D501ED91FC910284F385FA
:102F4000E02DC5010995780101E010E09E01A40182
:102F5000B601C5010E944016D501ED91FC9106888D
:102F6000F789E02DC501DF91CF911F910F91FF905F
:102F7000EF90DF90CF90BF90AF909F908F9009948B
:102F8000DF91CF911F910F91FF90EF90DF90CF9045
:102F9000BF90AF909F908F9008958F929F92AF9225
:102FA000BF92CF92DF92EF92FF920F931F93CF9336
:102FB000DF934C016B015A01E901209709F46CC0C1
:102FC0000115110509F468C037FF07C0C901019652
:102FD000C80ED91ED195C195D109F401A085B1853E
:102FE000CA16DB060CF058C017FF07C0C8010196CF
:102FF000A80EB91E119501951109F40182859385DA
:10300000A816B9060CF048C0F601EC0FFD1FAF0181
:103010004150510957FD40C0B501600F711F9B0120
:103020002150310937FD38C0D7FE03C0EF01D12C44
:10303000C12CB7FE03C08B01B12CA12C4A175B0732
:103040001CF0ED01CC19DD09281739071CF08C01A3
:103050000A191B09D401ED91FC910284F385E02D3E
:10306000C40109959E01A501B601C4010E94401644
:10307000D401ED91FC910688F789E02DC401DF9120
:10308000CF911F910F91FF90EF90DF90CF90BF9065
:10309000AF909F908F900994DF91CF911F910F91E6
:1030A000FF90EF90DF90CF90BF90AF909F908F9068
:1030B0000895EF92FF920F931F93CF93DF9377FDC5
:1030C00032C0DC011896ED91FC916E177F075CF51C
:1030D0002115310541F137FF07C0F90131964E0F37
:1030E0005F1F319521953109DC011A96ED91FC9114
:1030F0004E175F07C4F4EA01C20FD31FDE01119718
:10310000B7FD11C057FF03C09E0150E040E0AE176D
:10311000BF071CF09F01241B350B7801890121E0BA
:1031200030E00E944016DF91CF911F910F91FF90E8
:10313000EF900895EF92FF920F931F93CF93DF9339
:1031400057FD31C0DC011A96ED91FC914E175F07D7
:1031500054F52115310539F137FF07C0F9013196D2
:103160006E0F7F1F319521953109DC011896ED9185
:10317000FC916E177F07BCF4EB01C20FD31FDE0179
:103180001197B7FD10C077FF03C09E0170E060E0AB
:10319000AE17BF071CF09F01261B370B780101E01B
:1031A00010E00E944016DF91CF911F910F91FF9088
:1031B000EF9008958F929F92AF92BF92CF92DF923D
:1031C000EF92FF920F931F93CF93DF934701211547
:1031D000310509F44BC00115110509F447C037FF4B
:1031E00007C0F90131966E0F7F1F31952195310986
:1031F000DC011896AD90BC906A157B05BCF517FFF5
:1032000007C0F80131964E0F5F1F11950195110906
:10321000DC011A96ED91FC914E175F073CF56B01AE
:10322000C20ED31EE6012197D7FD20C07A01E00E21
:10323000F11ED7011197B7FD19C077FF03C09601A2
:1032400070E060E057FF03C0870150E040E0CA151E
:10325000DB051CF09501261B370BAE17BF071CF0D2
:103260008F01041B150B74010E944016DF91CF9152
:103270001F910F91FF90EF90DF90CF90BF90AF9094
:103280009F908F900895EF92FF920F931F93CF938B
:10329000DF93EC0177FD22C088859985681779074F
:1032A000ECF457FD1BC08A859B8548175907B4F479
:1032B0007901E881F98102A4F3A5E02D01E010E095
:1032C00021E030E0CE010995B701CE01DF91CF9129
:1032D0001F910F91FF90EF900C94EA14DF91CF9122
:1032E0001F910F91FF90EF900895CF93DF93EC0122
:1032F0000E94CA158FA987FD06C0EB8DFC8D8081C9
:103300009AA989238083DF91CF9108950895CF9260
:10331000DF92EF92FF920F931F93CF93DF93BC0145
:103320006F5F7F4FFC011491115008F467C0FB01DF
:10333000D4916B01F2E0CF0ED11CFB0131960491C8
:10334000C02FCF778DE996E00E94CA158091D406F0
:1033500087FD09C0E091B806F091B906808190918F
:10336000CF0689238083E091BA06F091BB06808165
:103370009091D106892380836D2F8DE996E00E947C
:103380002B15E091BA06F091BB0680819091D00692
:10339000892B8083F12CE12CD0E0EC16FD0664F43F
:1033A000F601EE0DFF1D64918DE996E00E942B154C
:1033B0008FEFE81AF80AF1CF8091D40687FD09C093
:1033C000E091B806F091B90680819091CE06892BE4
:1033D0008083B6016C0F7D1F07FFA6CFEB012196FE
:1033E000FB01649170E06F3F710511F464EF71E0CF
:1033F00090E080E00E94B70FBE0196CFDF91CF91A1
:103400001F910F91FF90EF90DF90CF9008950F9351
:103410001F93CF93DF93EC018B010E94CA158FA9F4
:1034200087FD06C0EB8DFC8D80819AA9892380835E
:10343000ED8DFE8D80819CA98923808366E3CE017A
:103440000E942B15ED8DFE8D80819BA9892B808399
:10345000F8016081CE010E942B158FA987FD06C05F
:10346000EB8DFC8D808199A9892B8083DF91CF9191
:103470001F910F910895CF93DF931F92CDB7DEB7C1
:10348000FC0119826370668BDC01AD5BBF4F2C9130
:1034900030E011968C9190E0623031F06330C9F0E9
:1034A000613081F040EC498332AF21AF94AF83AFFC
:1034B000BE016F5F7F4FCF010E94071A0F90DF910F
:1034C000CF91089540EA498334AF23AF92AF81AFE3
:1034D000EFCF40E6F8CFCF93DF931F92CDB7DEB7A3
:1034E000FC0119826370668BDC01AA5BBF4F8C9173
:1034F000982F9B7FAF014C5B5F4F913031F493E08D
:10350000623008F091E0DA019C939F012D5B3F4F00
:10351000623009F44CC0633009F459C0613069F17C
:10352000823021F098EC843009F046C090EC998309
:103530008130D1F480E890E09387828791878087FB
:10354000D9018C9190E092AF81AFDA018C9190E03B
:1035500094AF83AFBE016F5F7F4FCF010E94071A08
:103560000F90DF91CF910895843051F580EA90E07B
:103570009387828780E590E0E1CF823019F098EA66
:10358000843061F590EA9983813091F580E890E08C
:103590009187808793878287D9018C9190E094AF3F
:1035A00083AFDA018C9190E092AF81AFD3CF8230BC
:1035B00039F08430D9F298E09983813009F4BACF98
:1035C00080EA90E09387828780E890E0B7CF8230EE
:1035D00019F098E6843011F490E6D5CF99838130C4
:1035E000A9F280EA90E09187808780E890E0D2CFCE
:1035F0008430B9F780EA90E09187808780E590E099
:10360000C9CFFC0187A987FD06C0A38DB48D9C910D
:1036100081A9892B8C9308950895FC016370668BB2
:103620008481958126813781613039F0633029F0BA
:1036300091878087338722870895318720879387F2
:10364000828708952F923F924F925F926F927F925E
:103650008F929F92AF92BF92CF92DF92EF92FF92A2
:103660000F931F93CF93DF93CDB7DEB76A970FB653
:10367000F894DEBF0FBECDBF9A8F898F7A8369839E
:103680004A01D22E18870F833701BC2CDC015996D2
:103690002D913C915A972115310509F015C11896C5
:1036A0008D919C911997681779070CF0D7C11A96DC
:1036B0008D919C91481759070CF0D0C14C2C512C7E
:1036C000B6E0CB9E600D711D11247C876B871616AA
:1036D00017060CF0C3C1EA2DF0E0FA87E98793E002
:1036E000EE0FFF1F9A95E1F7F88BEF87CF01840F5C
:1036F000951F181619060CF0B1C1A98DBA8D5896F0
:103700008C91811104C0BFEABD1508F4D394A98D32
:10371000BA8DED91FC9111970284F385E02DCD01D6
:103720000995B5E0DB9EC0011124E981FA81FC8393
:10373000EB83312C212C9C01215B3D4E388F2F8B4C
:103740004A2D50E05E8B4D8BEF89F88DE20DF31D15
:1037500044919E828D82D12CC12C69817A81620D27
:10376000731D7A8B698B842F90E09C8B8B8BE98DFA
:10377000FA8DA081B18140FF82C0F1E0BF126FC01D
:10378000AF126DC01C96ED91FC912F813885A4017C
:103790004C0D5D1D69897A89898D9A8D0995EB8912
:1037A000FC89F595E7954E2F5FEFC51AD50A6D8117
:1037B0007E818D899E89680F791F7E836D8398E055
:1037C000C916D10481F6AFEF2A1A3A0AEB81FC81BF
:1037D000E40DF51DFC83EB83F5E02F16310409F0B1
:1037E000B3CF2F81388526153705B9F0A98DBA8D4D
:1037F000ED91FC91B1E0BB1257C0AB1255C069818D
:103800007A816B5F7F4F0088F189E02D830128E08A
:1038100030E0A401898D9A8D0995A98DBA8DED911D
:10382000FC9111970688F789E02DCD016A960FB6B5
:10383000F894DEBF0FBECDBFDF91CF911F910F91E6
:10384000FF90EF90DF90CF90BF90AF909F908F90C0
:103850007F906F905F904F903F902F9009941E96AD
:10386000ED91FC91EF80F88409851A8592014D81D4
:103870005E816B817C81898D9A8D099590CF2F8196
:1038800038852615370509F48ACF31E0B31207C011
:10389000A31205C01C96ED91FC91930178CF1E9662
:1038A000ED91FC917301E0CF6B857C8564197509FE
:1038B0000684F785E02D73010F8518899201A40114
:1038C000898D9A8D0995A9CFF901349694913297F3
:1038D00045915491D91AB7E0DB9E400D511D11243A
:1038E000F901259134913C8B2B8BFA012590349072
:1038F000FA013296749031963491398B32966490F5
:103900003196449041E04C1518F04A1508F07FC0FC
:10391000662D062C000C770B7C836B83842D042C86
:10392000000C990B9E838D83A98DBA8DED91FC912E
:1039300011970284F385E02DCD010995512CD12CEE
:10394000C12CEA2DF0E0FA87E9872B2D30E03C8787
:103950002B87A401440D511D47FC5A95588F4F8B5E
:1039600069817A81660D711D67FC7A957E876D8706
:103970007989C71608F051CF2C2D30E04D815E813A
:10398000420F531FA985BA854A9FC0014B9F900DD6
:103990005A9F900D1124FC01E80DF91DF88BEF875B
:1039A000852D612C4F89588D420F531F5E8B4D8B97
:1039B000671408F050C044244394480E877041F4C3
:1039C000C1010196EB89FC89E20DF31DD4901C0125
:1039D000D7FE19C0A98DBA8DED91FC91662D70E0CE
:1039E000B1E0BB1219C0AB1217C02D853E85620F26
:1039F000731F0484F585E02D2F8138854D895E89FC
:103A0000898D9A8D0995DD0C6394842DD1CF1E820A
:103A10001D821C821B8288CF4B815C81640F751FC5
:103A2000AB85BC856A9FC0016B9F900D7A9F900DFE
:103A3000112469817A81680F791F0684F785E02D4A
:103A4000EF80F88409851A859D014F855889898DF5
:103A50009A8D0995D8CF570CC3948ACF6A960FB622
:103A6000F894DEBF0FBECDBFDF91CF911F910F91B4
:103A7000FF90EF90DF90CF90BF90AF909F908F908E
:103A80007F906F905F904F903F902F9008958F920E
:103A90009F92AF92CF92EF92FF920F931F93CF938B
:103AA000DF93EC01262F898D9A8D009709F051C084
:103AB0006A30D1F41D861C868D8948E0849F900170
:103AC00011248E859F85820F931F9F878E8781E0AB
:103AD00090E0DF91CF911F910F91FF90EF90CF90E9
:103AE000AF909F908F9008956D3089F3CC88AD880A
:103AF0008F898823C1F08C859D8536E0C39E800D1B
:103B0000911D1124488559854817590764F44E853D
:103B10005F851D861C8638E0A39EC0011124840F9A
:103B2000951F9F878E87EA88FB88088919894E85AB
:103B30005F856C857D85CE010E94221B2C898C853A
:103B40009D8546E0249F800D911D11249D878C87C3
:103B5000BECF6A3069F41D861C86FC013696E4915E
:103B60002D898E859F85E29F800D911D1124ADCFFB
:103B70006D3009F4ACCFFC0134963491631708F42E
:103B8000A6CF3196E491E61708F4A1CFFC01329656
:103B900085909490462F431B342F47E0349F800C30
:103BA000911C1124F401329634913196E49133231F
:103BB000A9F1EE2399F1CC88F4013596E491AD8812
:103BC0004F89442301F10E2E000CFF0BE30FF11D72
:103BD000CE9EA001CF9E500D11246C857D85460F91
:103BE000571F68857985641775076CF44E855F8566
:103BF0001D861C86FC013696E491AE9E400D511D3B
:103C000011245F874E87EA88FB88088919894E85C9
:103C10005F856C857D85CE010E94221BF401349660
:103C2000E4912C898C859D85E29F800D911D112446
:103C30008DCF682F8DE996E00C94471D6F927F928F
:103C40008F929F92AF92BF92CF92DF92EF92FF92AC
:103C50000F931F93CF93DF93EC016B015A0139014E
:103C60004801E881F9810284F385E02D0995E88116
:103C7000F9810288F389E02D87019301A501B6013E
:103C8000CE010995A501480D591D41505109E88102
:103C9000F9810288F389E02D9301B601CE010995DF
:103CA000E881F9810088F189E02D9401A501B60130
:103CB000CE010995C60CD71CB60161507109E88187
:103CC000F9810088F189E02D9401A501CE010995C3
:103CD000E881F9810688F789E02DCE01DF91CF9147
:103CE0001F910F91FF90EF90DF90CF90BF90AF901A
:103CF0009F908F907F906F9009946F927F928F9298
:103D00009F92AF92BF92CF92DF92EF92FF920F936A
:103D10001F93CF93DF935C01EB016A0149013801E6
:103D20008701DC01ED91FC916217730719F56416A8
:103D300075062CF0962D872D3A01C92ED82E9601A6
:103D4000261937092F5F3F4F048CF58DE02DA30115
:103D5000BE01C5010995DF91CF911F910F91FF9091
:103D6000EF90DF90CF90BF90AF909F908F907F901B
:103D70006F9008954615570591F42617370724F0DC
:103D8000892D4B01C22FD82F9E01281939092F5F89
:103D90003F4F068CF78DE02DA601B401DACF0284E7
:103DA000F385E02D0995D501ED91FC910488F58905
:103DB000E02D83019401A601BE01C5010995D5013D
:103DC000ED91FC910688F789E02DC501DF91CF9137
:103DD0001F910F91FF90EF90DF90CF90BF90AF9029
:103DE0009F908F907F906F900994EF92FF920F9326
:103DF0001F93DC011A960D911C911B9718962D911B
:103E00003C911997ED91FC9100A0F1A1E02D7B016F
:103E100050E040E070E060E009951F910F91FF9045
:103E2000EF9008954F925F926F927F928F929F9240
:103E3000AF92BF92CF92DF92EF92FF920F931F93B8
:103E4000CF93DF936C012B015A0139014801DC014A
:103E5000ED91FC910284F385E02D0995E201640C5B
:103E6000751CD601ED91FC91C615D7055CF4008850
:103E7000F189E02D87019401A501BE01C6010995D4
:103E80002196EFCF0688F789E02DC601DF91CF910B
:103E90001F910F91FF90EF90DF90CF90BF90AF9068
:103EA0009F908F907F906F905F904F9009948F922A
:103EB0009F92AF92BF92CF92DF92EF92FF920F93B9
:103EC0001F93CF93DF93EC015B014A016901E88105
:103ED000F9810284F385E02D099595012C0D3D1D96
:103EE00021503109E881F9810488F589E02D7801B4
:103EF0008401A401B501CE010995E881F981068804
:103F0000F789E02DCE01DF91CF911F910F91FF90A6
:103F1000EF90DF90CF90BF90AF909F908F900994DB
:103F20008F929F92AF92BF92CF92DF92EF92FF92C9
:103F30000F931F93CF93DF93EC015B014A0169015B
:103F40007801E881F9810284F385E02D0995C80C98
:103F5000D91C860101501109E881F9810488F5898D
:103F6000E02D9501A401B501CE010995E881F98103
:103F70000688F789E02DCE01DF91CF911F910F9137
:103F8000FF90EF90DF90CF90BF90AF909F908F9079
:103F90000994EF92FF920F931F93DC01ED91FC9136
:103FA00000A0F1A1E02D09951F910F91FF90EF90D6
:103FB00008950F931F93DC01ED91FC91068CF78D12
:103FC000E02D09951F910F9108950F931F93DC0128
:103FD000ED91FC91048CF58DE02D09951F910F91C9
:103FE0000895DC01ED91FC910084F185E02D0994A8
:103FF0002F923F924F925F926F927F928F929F92F9
:10400000AF92BF92CF92DF92EF92FF920F931F93E6
:10401000CF93DF9300D000D000D0CDB7DEB73C0106
:104020006A013E832D83FC82EB825801A41AB50AF3
:10403000B7FE03C0B194A194B1088D809E80861A0A
:10404000970A97FE03C09194819491088A149B0467
:104050005CF0902F812F0D811E819D838E839C2D7E
:104060008D2D6B01692F782F0C151D055CF09D813E
:104070008E817E836D83692F782F902F812F86010B
:10408000C92ED82E1601201A310A2B012D813E810E
:10409000421A530A57FE03C05194419451087101CA
:1040A00037FE03C03FEFE31AF30AF594E7948D81DE
:1040B0009E81861797075CF5A1E0B0E0BA83A983DB
:1040C000C016D1064CF1D301ED91FC910484F58525
:1040D000E02D2B813C81A8016D817E818A149B0497
:1040E0001CF04D815E81B801C3010995E418F50803
:1040F000F7FE0AC02D813E8189819A81280F391FE0
:104100003E832D83E20CF31C0F5F1F4FD9CF2FEF9F
:104110003FEF3A832983D4CF26960FB6F894DEBFBB
:104120000FBECDBFDF91CF911F910F91FF90EF9008
:10413000DF90CF90BF90AF909F908F907F906F90C7
:104140005F904F903F902F900895089590E080E009
:10415000089581E0089560E087E00E94560F60E0D6
:1041600088E00E94560F60E089E00C94560F0F9390
:104170001F93CF93DF93CDB7DEB729970FB6F8948F
:10418000DEBF0FBECDBF29E0E0E2F3E0DE01119615
:1041900001900D922A95E1F78C01FB0130E020E0BF
:1041A000D8019D918D019923C1F0975041E050E0D5
:1041B0004C0F5D1F420F531FDA018C91982791938A
:1041C0002F5F3F4F81E090E08C0F9D1F820F931F68
:1041D000DC018C918111E4CFE1CF1082CB012996D3
:1041E0000FB6F894DEBF0FBECDBFDF91CF911F9108
:1041F0000F910895FB0101900020E9F73197AF017D
:10420000461B570BDC01ED91FC910280F381E02D00
:1042100009946115710511F00C94FA2090E080E08A
:104220000895EF92FF920F931F93CF93DF937C013A
:10423000D0E0C0E08091A6059091A70569E273E007
:10424000209709F0B7010E94092104E610E084E0FC
:104250000E94FF0E892B89F161E070E080E090E020
:104260000E94B70F0150110991F766E473E0809145
:10427000A6059091A7050E9409218091A60590911D
:10428000A705DC01ED91FC910084F185E02D0995F5
:10429000181619067CF68091A6059091A705DC01F9
:1042A000ED91FC910284F385E02D09958A3011F09F
:1042B0008D3019F7C1E0D0E0E0CFDF91CF911F91B1
:1042C0000F91FF90EF900895CF93DF93BC018DE99C
:1042D00096E00E940921EC0166E473E08DE996E026
:1042E0000E94FA208C0F9D1FDF91CF91089570E0FE
:1042F00060E08DE996E00E94F51EEDE9F6E0158696
:1043000014861786168680E098EF938B828B918BAC
:10431000808B82E0848B858B89E493E00C9464210C
:104320001F93CF93DF930E9477218FEF9FEF90939E
:10433000B0068093AF069093AE068093AD0681E001
:104340008093B1068093B206CAE9D0E11AE2115017
:1043500031F0FE0184910E94191E2196F8CF65ED7F
:1043600073E08AE091E00E94B7200E94642184E01B
:104370000E94FF0E892B39F065E070E080E090E04C
:104380000E94B70FF4CFDF91CF911F910895EF9264
:10439000FF920F931F93CF93DF93F82EE62E8A019F
:1043A0000E94AB208FE190E00E94432DEC011B8224
:1043B0001A8288EE93E0A0E0B0E08C839D83AE8308
:1043C000BF838AEA91E0998388831F8A1E8A198EA7
:1043D000188E1B8E1A8E1D8E1C8E8E8D8E7F8D7F5D
:1043E0008E8F6E2DCE010E9415146F2DCE010E946E
:1043F000EC13D093A705C093A605A801110F660B77
:10440000770BCE01DF91CF911F910F91FF90EF902D
:104410000C943F131F93CF93DF930E9477218FEF6C
:104420009FEF9093B0068093AF069093AE06809373
:10443000AD0681E08093B1068093B206C4ECD0E172
:104440001FE5115031F0FE0184910E94191E219642
:10445000F8CF40E855E268E070E089E090E00E9423
:10446000C72165ED73E08CE291E00E94B7200E94C5
:104470001121DF91CF911F910C94AB208F929F92CD
:10448000AF92BF92DF92EF92FF920F931F93CF9361
:10449000DF93D82E7B0181E390E00E94432DEC0155
:1044A00081E0888319828A8388E08B8389E08C830A
:1044B000E5EFFAE184918D83E491E095EE83E6EFF8
:1044C000FAE194919F83E491E095E887892B8987AD
:1044D00013E1A12E1BE1B12EF5018491E82FF0E04C
:1044E000EE0FFF1FED51F54E859194919B878A87C2
:1044F00004E11BE1F8018491E82FF0E0EE0FFF1FCB
:10450000ED51F54E859194919D878C878AE090E0DE
:104510009F8B8E8B62E088E00E94560F62E088E0FD
:104520000E94560FF5018491E82FF0E0EE0FFF1F77
:10453000EF5FF44E259134913F872E87F501A490CB
:10454000EA2DF0E0EE0FFF1FE752F54E85919491B2
:10455000998B888BF8018491E82FF0E0EE0FFF1F14
:10456000EF5FF44E859194919B8B8A8BF8010491B7
:10457000E02FF0E0EE0FFF1FE752F54E459154910A
:104580005D8B4C8B28173907A1F0CDEBDAE1FE01EA
:104590006491662339F08FEF95E00E94690E2196B1
:1045A000892BA9F766E473E08FEF95E00E94FA206B
:1045B000FFCFF89419A680E197E2998F888FB0E831
:1045C0008B2EBEE39B2EA12CB12C888D998D893E1C
:1045D000F3E09F0710F1E9A581E08E0F89A790E035
:1045E00080E0E53088F4F0E0EE0FFF1FEC52FD4F65
:1045F00080819181009741F09C0150E040E0C5012D
:10460000B4010E94972CC9016E897F89660F771FBC
:104610000E94062D798F688FD8CF9C013695322F56
:10462000222737952795245031093B8F2A8F44E163
:10463000489F9001499F300D1124245031093D8F2E
:104640002C8FAC0163E0440F551F6A95E1F7240FEE
:10465000351F3F8F2E8F0497998F888FE889F989AE
:1046600080819E81892380838881882331F0EE8533
:10467000FF8580819D81892B8083EC89FD898081E4
:104680009885892380838881882331F0EA89FB8992
:1046900080819F81892B808318A689A5886089A73E
:1046A0001AA61BA61CA61DA67894D093FE05C0933F
:1046B000FD05F092FC05E092FB05F701019000205A
:1046C000E9F73197EE19FF09E093FA05D092F90561
:1046D000DF91CF911F910F91FF90EF90DF90BF90EE
:1046E000AF909F908F9008951F93CF93DF930E9478
:1046F00077218FEF9FEF9093B0068093AF06909352
:10470000AE068093AD0681E08093B1068093B20639
:10471000CEEED1E110E3115031F0FE0184910E9400
:10472000191E2196F8CF65ED73E083E691E00E94B3
:10473000B720BC0187E090E00E943E220E94EA0F71
:104740000E94AB20DF91CF911F910C94AB20CF92B0
:10475000DF92EF92FF920F931F93CF93DF93EC01C1
:104760006A017B01C114D104E104F10439F4C12CC4
:1047700048E4D42E48EEE42EFF24F394FE01FF9685
:10478000C082D182E282F38281E28DAF80E28EAF7D
:10479000369610818FA987FD07C061E00E94560FF1
:1047A00061E08FA90E94280F61E088AD0E94560F3A
:1047B00061E088AD0E94280F8DA9811182C040E080
:1047C00052E16AE770E0C416D506E606F70640F443
:1047D00076956795579547958F5F8630A1F787E067
:1047E000212F2C702065982F9695922B99A3809558
:1047F00081708AA3812F90E0B0E0A0E08BA39CA3FE
:10480000ADA3BEA31FB7F89480913904811127C0CE
:10481000E5E1FBE18491E7EFFAE19491E82FF0E024
:10482000EE0FFF1FE752F54EA591B491EC91E923ED
:1048300021F461E08AE00E94280F61E08AE00E9492
:10484000560F8CB580618CBD8CB580648CBD61E0E9
:104850008DE00E94560F61E08BE00E94560F809120
:1048600039048F5F809339041FBF8EA987FD75C0FF
:1048700061E00E94560F61E08EA90E94280F64E655
:1048800070E080E090E00E94B70F60E08EA90E9487
:10489000280F64E670E080E090E00E94B70F61E0CE
:1048A0008EA90E94280F68EC70E080E090E0DF9114
:1048B000CF911F910F91FF90EF90DF90CF900C94CC
:1048C000B70F0BE01BE1F12C8130B9F461E08AA550
:1048D0000E94560F60E08AA50E94280F61E08CA517
:1048E0000E94560F60E08CA50E94280F8BA587FDC3
:1048F000BCCF60E00E94560FB8CFF8018491E82F3A
:10490000F0E0EE0FFF1FEF5FF44E859194912F8D35
:1049100038A12817390741F461E08F2D0E94560F06
:1049200060E08F2D0E94280FF3940F5F1F4FF4E17A
:10493000FF12E3CF61E08EA50E94560F61E08EA5C5
:104940000E94280F8FA587FD90CF61E00E94560F2F
:1049500061E08FA50E94280F88CFDF91CF911F9132
:104960000F91FF90EF90DF90CF9008953F924F927C
:104970005F926F927F928F929F92AF92BF92CF92EF
:10498000DF92EF92FF920F931F93CF93DF933C013F
:104990000E9477218FEF9FEF9093B0068093AF0630
:1049A0009093AE068093AD0681E08093B10680932C
:1049B000B206C6EDD7E117E11150C1F50FEC11E0D9
:1049C000F12CE12CCC24CA94DC2C4424439490EEAA
:1049D000A92EBB24BA9422E0322EF8018281938161
:1049E000892B09F440C0E614F70431F5B092B00603
:1049F000A092AF06B092AE06A092AD063092B1067C
:104A00003092B206512C852C912CF801C081D181B5
:104A1000CE010E94622C88169906D8F4FE01E80D9A
:104A2000F91D84910E94191E5394EDCFFE018491CB
:104A30000E94191E2196C0CFD092B006C092AF0638
:104A4000D092AE06C092AD064092B1064092B20638
:104A5000D9CF88E493E00E946421FFEFEF1AFF0AA8
:104A60000C5F1F4FBACFDF91CF911F910F91FF9035
:104A7000EF90DF90CF90BF90AF909F908F907F90FE
:104A80006F905F904F903F9008958091880490912F
:104A9000890401969093890480938804880F991F54
:104AA000880F991FFC01E153FE4F80819181892B72
:104AB00021F41092890410928804809188049091C6
:104AC00089040C94B6248F929F92AF92BF92CF929A
:104AD000DF92EF92FF920F931F93CF93DF93CDB7A7
:104AE000DEB7CA51D1400FB6F894DEBF0FBECDBFBE
:104AF00080E290E0C75EDE4F99838883C951D14040
:104B000066E573E08EE894E00E94942E0FEF1FEFAD
:104B1000892B89F06EE874E088EA95E00E94942E73
:104B20008C01892BE9F46AE573E08091A6059091E8
:104B3000A7050E940921C801C65EDE4F0FB6F89492
:104B4000DEBF0FBECDBFDF91CF911F910F91FF90C0
:104B5000EF90DF90CF90BF90AF909F908F9008958F
:104B60004EE854E0FA0101900020E9F7AF014E58F9
:104B700054406EE874E088EA95E00E94C22E68E432
:104B800073E0CE0187539F4F0E949D2E54E8E52E7F
:104B900052E0F52ED12CC12CF701619171917F016A
:104BA000CE0101960E945B2C43E050E069E773E080
:104BB000CE0101960E94B42E892BC1F4BE016F5F15
:104BC0007F4F82E192E00E94B7208E010F5F1F4F5E
:104BD000F80181918F01882349F0082E000C990B70
:104BE0000E94812EF80131978083F2CFBE016F5F62
:104BF0007F4F8EE894E00E94D12E5C01892B39F41E
:104C0000FFEFCF1ADF0A27E2C216D10429F689E0A6
:104C10008C9D80018D9D100D11247601EE0CFF1CE2
:104C2000F701EA5AFA4F0190F081E02DE00FF11FF1
:104C3000EE0FFF1FE351F84E659174914E0135E67A
:104C4000830E911CC4010E945B2C43E050E06DE791
:104C500073E0C4010E94B42E892B29F4B4018FEEB5
:104C600091E00E94B720F40101900020E9F7AF0124
:104C70004819590942505109F401E40FF51F808188
:104C8000B4018A3259F1CE0187539F4F0E94892E79
:104C9000BE0167537F4F8091A6059091A7050E94A2
:104CA000092167E473E08091A6059091A7050E9411
:104CB0000921F701EA5AFA4F808191810196918387
:104CC0008083D601AC5DBD4F2C912817190609F0E1
:104CD00014F41182108210E000E02DCFCE01875332
:104CE0009F4F0E94A42EF701EA5AFA4F0190F081DB
:104CF000E02DE00FF11FEE0FFF1FE351F84E65911D
:104D00007491CE0101960E945B2C43E050E069E76C
:104D100073E0CE0101960E94B42E892B09F044C0A5
:104D2000BE016F5F7F4F82E192E00E94B720FC01DD
:104D300001900020E9F731979F01281B390BC90129
:104D40008A0D9B1DBE01675E7E4F0E946B2C5C012D
:104D5000892BD9F19CE4892E92E0992E10E000E095
:104D6000B501F401808191810E94942E892B21F557
:104D7000000F111F000F111FF801E45BFD4FA2800F
:104D8000B38066E873E0CE0187539F4F0E94892E5F
:104D9000B501CE0187539F4F0E94892EBE01675EE9
:104DA0007E4F90E080E0D1CFF701EC57FD4F80813E
:104DB00091810E94622CC4CF0F5F1F4FF4E08F0ED1
:104DC000911C0E30110561F6DCCF61E873E05BCF1A
:104DD0000E94682ECF92DF92EF92FF921F93CF93A3
:104DE000DF930E9477218FEF9FEF9093B00680931F
:104DF000AF069093AE068093AD0681E08093B10636
:104E00008093B206CEE1D2E111E3115031F0FE0100
:104E100084910E94191E2196F8CF0E94032C6B01E9
:104E20007C0165ED73E083E891E00E94B720EC011E
:104E3000C701B60123E630E040E050E00E94972C25
:104E4000DC01CB010196A11DB11DBE0190E00E94C5
:104E50003E220E94EA0F0E94AB20DF91CF911F916A
:104E6000FF90EF90DF90CF900C94AB20CF92DF9229
:104E7000EF92FF921F93CF93DF930E9477218FEFE2
:104E80009FEF9093B0068093AF069093AE06809309
:104E9000AD0681E08093B1068093B206C8E6D1E109
:104EA00013E4115031F0FE0184910E94191E2196E5
:104EB000F8CF0E94032C23E030E040E050E00E9455
:104EC000972CC62FD62F83E0C82ED12CE12CF12CA5
:104ED0000E94032CA70196010E94972CD617C1F3BC
:104EE0004091570150915801E62FF0E0EC5AFE4FE7
:104EF000608170E0EC2FF0E0EC5AFE4F808190E092
:104F00000E94C72165ED73E082E192E00E94B72024
:104F10000E941121DF91CF911F91FF90EF90DF90C0
:104F2000CF900C94AB201F93CF93DF930E947721F7
:104F30008FEF9FEF9093B0068093AF069093AE06ED
:104F40008093AD0681E08093B1068093B206C3E200
:104F5000D1E115E4115031F0FE0184910E94191E37
:104F60002196F8CF0E94032C26E030E040E050E08C
:104F70000E94972CE62FF0E0EE0FFF1FE95AFE4F3C
:104F80004081518168E070E089E090E00E94C72193
:104F900065ED73E082E491E00E94B7200E94112148
:104FA000DF91CF911F910C94AB20CF92DF92EF92C3
:104FB000FF920F931F93CF93DF930E9477218FEF80
:104FC0009FEF9093B0068093AF069093AE068093C8
:104FD000AD0681E08093B1068093B206CBEAD1E1C1
:104FE00013E4115031F0FE0184910E94191E2196A4
:104FF000F8CF0E94032C23E030E040E050E00E9414
:10500000972CC62F83E0C82ED12CE12CF12C0E94C6
:10501000032CA70196010E94972CC617C1F30E948A
:10502000AB20E6E5F5E086EA95E0119211928E1745
:105030009F07D9F71092A8058FE190E00E94432DB9
:10504000EC011B821A8288EE93E0A0E0B0E08C8332
:105050009D83AE83BF838AEA91E0998388831F8A08
:105060001E8A198E188E1B8E1A8E1D8E1C8E8E8D8A
:105070008E7F8D7F8E8F68E0CE010E94151469E0CF
:10508000CE010E94EC13D093A705C093A60540E87B
:1050900055E260E070E0CE010E943F1363E873E0E8
:1050A000CE010E94092184E00E94FF0E892B09F4A1
:1050B00060C08091A6059091A705DC01ED91FC915F
:1050C0000084F185E02D09951816190664F7809182
:1050D000A6059091A705DC01ED91FC910284F38572
:1050E000E02D0995082F8091A6059091A705DC0178
:1050F000ED91FC910190F081E02D602F0995C09118
:10510000D4030A3011F00D3091F4EC2FF0E0E257A7
:10511000FB4F10820E94632563E873E08091A6052F
:105120009091A7050E9409211092D403C2CFC73CD9
:1051300008F0BFCF002E000C110BC8010E94702E8A
:10514000892B51F4C801C0970A9730F0C8010E941A
:10515000782E892B09F4ADCFC8010E94812EEC2F47
:10516000F0E0E257FB4F8083E1E0EC0FE093D403E3
:10517000A0CFDF91CF911F910F91FF90EF90DF9023
:10518000CF900C94AB201F920F920FB60F92112468
:105190002F933F934F935F936F937F938F939F933F
:1051A000AF93BF93EF93FF938FEF95E00E94470E6D
:1051B000FF91EF91BF91AF919F918F917F916F91EF
:1051C0005F914F913F912F910F900FBE0F901F90C5
:1051D00018951F920F920FB60F9211242F938F9351
:1051E0009F93EF93FF93E0910F06F091100680815B
:1051F000E0911506F091160682FD1BC0908180910A
:1052000018068F5F8F7320911906821741F0E09185
:105210001806F0E0E150FA4F958F80931806FF9141
:10522000EF919F918F912F910F900FBE0F901F9034
:1052300018958081F4CF1F920F920FB60F92112410
:105240002F933F938F939F93AF93BF93809183044A
:1052500090918404A0918504B091860430917E04DD
:1052600023E0230F2D3758F50196A11DB11D209382
:105270007E048093830490938404A0938504B09368
:10528000860480917F0490918004A0918104B09164
:1052900082040196A11DB11D80937F049093800428
:1052A000A0938104B0938204BF91AF919F918F919D
:1052B0003F912F910F900FBE0F901F90189526E8E9
:1052C000230F0296A11DB11DD2CF1F920F920FB6D0
:1052D0000F9211242F933F934F935F936F937F937C
:1052E0008F939F93AF93BF93EF93FF93E0917C04D1
:1052F000F0917D04309749F0A685B7858585968D18
:1053000091FF14C09C918923A1F4FF91EF91BF916B
:10531000AF919F918F917F916F915F914F913F914D
:105320002F910F900FBE0F901F9018959C9189237D
:1053300061F7A389B4899C918589809589238C9391
:10534000868997890197F1F7608D718DA685B7855C
:10535000558538E020E0CB010197F1F7822F90E0EE
:1053600095958795282F4C91452309F02068315059
:1053700091F7868D81FD209580917A0490E00196C9
:105380008F73992730917B04381799F0A0917A0494
:10539000B0E0A65CBB4F2C9380937A04828D938DF2
:1053A0000197F1F7A389B4898C919589892B8C9306
:1053B000ACCF868D8160868FF1CFEFEFF5E0138261
:1053C000128288EE93E0A0E0B0E084839583A68308
:1053D000B78382EE92E09183808385EC90E095879D
:1053E000848784EC90E09787868780EC90E0918BAF
:1053F000808B81EC90E0938B828B82EC90E0958B9C
:10540000848B86EC90E0978B868B118E128E138E98
:10541000148EADE9B6E013961C921E92129720E806
:1054200030E015963C932E93149780EA90E01796FF
:105430009C938E93169719963C932E9318971B96D0
:105440009C938E931A9756961C9256971D961C9273
:105450001E921C971F961C921E921E9781E05596D5
:105460008C93559754968C9354972FEF3FEF539608
:105470003C932E93529751963C932E935097579668
:105480008C93579758961C9258975A961C921E9236
:105490005997D5961C92D59782E0D6968C93D6973D
:1054A0008AE0D7968C93D79783E0D8968C93D89739
:1054B000DA961C921E92D997DC961C921E92DB976C
:1054C000DD961C92DD97DE961C92DE971092DC062C
:1054D0001092DD061092DE061092DF068CE996E04F
:1054E00090969C938E935F97EEE0FBE1E491F0E061
:1054F000EE0FFF1FEF5FF44E859194915E969C93A3
:105500008E935D97E0EFFAE18491D3968C93D397D5
:10551000E5E1FBE1E491F0E0EE0FFF1FEF5FF44EF9
:10552000259134915C963C932E935B97E7EFFAE1DB
:10553000E491D196EC93D197E095D296EC93D297E3
:10554000E82FE095D496EC93D4971092E006109251
:10555000E1061092E20684EF92E08D939C93089509
:10556000CF93DF931F92CDB7DEB7789484B5826076
:1055700084BD84B5816084BD85B5826085BD85B5F7
:10558000816085BD80916E00816080936E00109275
:1055900081008091810082608093810080918100F0
:1055A0008160809381008091800081608093800081
:1055B0008091B10084608093B1008091B0008160DF
:1055C0008093B00080917A00846080937A0080910B
:1055D0007A00826080937A0080917A008160809363
:1055E0007A0080917A00806880937A001092C100DE
:1055F00040E050E0BA018DE996E00E94A7238BE9D4
:1056000097E10E9487198EE897E10E94871983E647
:1056100097E10E94871980EC8983BE016F5F7F4FFD
:105620008DE996E00E94071A82E08093E30660E02D
:105630008DE996E00E946B1A61E08DE996E00E9488
:105640006B1A8FB7F8944091830450918404609151
:105650008504709186048FBF70E060E08DE996E06C
:105660000E94F51E8FB7F8944091830450918404F2
:1056700060918504709186048FBF62E084E00E948F
:10568000560F61E084E00E94280F0E94AB208091B9
:105690008804909189040E94B6248091870488230D
:1056A00031F068EB71E08FEF95E00E94FA2000E0A6
:1056B00010E0EE24E394F12CC0908C04D0908D0483
:1056C000D0928B04C0928A0484E00E94FF0E892B42
:1056D00009F048C0F0928D04E0928C04CA94CD2861
:1056E00081F084E00E94FF0E60E971E080E090E0CC
:1056F0000E94B70F84E00E94FF0E892B61F00E9488
:10570000452501151105C1F20E94330E8823A1F22F
:105710000E940000D1CF61E08DE996E00E94D31590
:1057200060E971E080E090E00E94B70F60E08DE9F1
:1057300096E00E94D31560E971E080E090E00E945D
:10574000B70FE0918804F0918904EE0FFF1FEE0F70
:10575000FF1FE153FE4F0280F381E02D309789F265
:105760000995CDCF10928D0410928C04CACF8F92E0
:105770009F92AF92BF92CF92DF92EF92FF92CF9320
:10578000DF93EC01688179818A819B8161157105C4
:105790008105910521F464E279ED8BE597E02DE137
:1057A00033EF41E050E00E94972C49015A019B01E0
:1057B000AC01A7EAB1E40E94B62C6B017C01ACEE0F
:1057C000B4EFA50194010E94C42CC60ED71EE81E9A
:1057D000F91EF7FE06C081E0C81AD108E10880E88A
:1057E000F80AC882D982EA82FB82C701B6019F7794
:1057F000DF91CF91FF90EF90DF90CF90BF90AF906F
:105800009F908F9008958F929F92AF92BF92CF9268
:10581000DF92EF92FF9260910001709101018091FF
:10582000020190910301611571058105910521F433
:1058300064E279ED8BE597E02DE133EF41E050E054
:105840000E94972C49015A019B01AC01A7EAB1E4DF
:105850000E94B62C6B017C01ACEEB4EFA501940163
:105860000E94C42CC60ED71EE81EF91EF7FE06C005
:1058700081E0C81AD108E10880E8F80AC092000166
:10588000D0920101E0920201F0920301C701B6013A
:105890009F77FF90EF90DF90CF90BF90AF909F9059
:1058A0008F9008956093000170930101809302012D
:1058B000909303010895FB01DC0105900D920020F7
:1058C000E1F70895FC0105900020E9F78095909597
:1058D0008E0F9F1F089544EE56E00E94702C08958D
:1058E000FA01A191B081009719F41097E1F0CD0170
:1058F000DC01CD010D90002011F4C00113C0FB01AB
:105900002191222319F02015D9F7F3CFFB01219122
:10591000201519F41E92119606C02223C1F70D908E
:105920000020A1F7D001FA01A193B0830895052EBC
:1059300097FB1EF400940E94AE2C57FD07D00E94E6
:10594000C92C07FC03D04EF40C94AE2C5095409516
:10595000309521953F4F4F4F5F4F0895909580951B
:10596000709561957F4F8F4F9F4F08950E94EB2C4C
:10597000A59F900DB49F900DA49F800D911D1124A3
:105980000895B7FF0C94B62C0E94B62C821B930B83
:105990000895A1E21A2EAA1BBB1BFD010DC0AA1F70
:1059A000BB1FEE1FFF1FA217B307E407F50720F088
:1059B000A21BB30BE40BF50B661F771F881F991F03
:1059C0001A9469F760957095809590959B01AC014C
:1059D000BD01CF010895A29FB001B39FC001A39F55
:1059E000700D811D1124911DB29F700D811D112418
:1059F000911D0895991B79E004C0991F961708F02E
:105A0000961B881F7A95C9F780950895AA1BBB1B22
:105A100051E107C0AA1FBB1FA617B70710F0A61BAE
:105A2000B70B881F991F5A95A9F780959095BC01CF
:105A3000CD01089597FB072E16F4009407D077FD4B
:105A400009D00E94062D07FC05D03EF49095819563
:105A50009F4F0895709561957F4F08950E94EB2C9C
:105A6000332312F48A1B9B0B0C94382D0E94EB2CD1
:105A7000B7FF0895821B930B0895EE0FFF1F05904B
:105A8000F491E02D09940F931F93CF93DF9382300D
:105A9000910510F482E090E0E091E806F091E906CB
:105AA00030E020E0B0E0A0E0309799F42115310516
:105AB00009F44AC0281B390B24303105D8F58A81F6
:105AC0009B816115710589F1FB0193838283FE013E
:105AD00011C0408151810281138148175907E0F0BC
